:02000002B0004C
:1040000000400B00927B0B00000006000C00050234
:084010000401D51700000000B7
:04401800D4750B0050
:1040200081F0004102E000BF83F0004330B54FEA69
:1040300041044FEA430594EA050F08BF90EA020FD6
:104040001FBF54EA000C55EA020C7FEA645C7FEA69
:10405000655C00F0E2804FEA5454D4EB5555B8BF8C
:104060006D420CDD2C4480EA020281EA030382EAFD
:10407000000083EA010180EA020281EA0303362D8F
:1040800088BF30BD11F0004F4FEA01314FF4801C62
:104090004CEA113102D0404261EB410113F0004F74
:1040A0004FEA03334CEA133302D0524263EB43032B
:1040B00094EA050F00F0A780A4F10104D5F1200EC9
:1040C0000DDB02FA0EFC22FA05F2801841F1000124
:1040D00003FA0EF2801843FA05F359410EE0A5F1F8
:1040E00020050EF1200E012A03FA0EFC28BF4CF029
:1040F000020C43FA05F3C01851EBE37101F00045DF
:1041000007D54FF0000EDCF1000C7EEB00006EEBEB
:104110000101B1F5801F1BD3B1F5001F0CD3490875
:104120005FEA30004FEA3C0C04F101044FEA4452CC
:1041300012F5800F80F09A80BCF1004F08BF5FEA53
:10414000500C50F1000041EB045141EA050130BD33
:104150005FEA4C0C404141EB0101013C28BFB1F545
:10416000801FE9D291F0000F04BF01460020B1FA90
:1041700081F308BF2033A3F10B03B3F120020CDA63
:104180000C3208DD02F1140CC2F10C0201FA0CF041
:1041900021FA02F10CE002F11402D8BFC2F1200CA6
:1041A00001FA02F120FA0CFCDCBF41EA0C0190405C
:1041B000E41AA2BF01EB0451294330BD6FEA0404A5
:1041C0001F3C1CDA0C340EDC04F11404C4F1200290
:1041D00020FA04F001FA02F340EA030021FA04F3A2
:1041E00045EA030130BDC4F10C04C4F1200220FAF9
:1041F00002F001FA04F340EA0300294630BD21FA37
:1042000004F0294630BD94F0000F83F4801306BFFC
:1042100081F480110134013D4EE77FEA645C18BFF0
:104220007FEA655C29D094EA050F08BF90EA020F87
:1042300005D054EA000C04BF1946104630BD91EA7F
:10424000030F1EBF0021002030BD5FEA545C05D182
:104250004000494128BF41F0004130BD14F58004C1
:104260003CBF01F5801130BD01F0004545F0FE4135
:1042700041F470014FF0000030BD7FEA645C1ABF6A
:10428000194610467FEA655C1CBF0B46024650EAA1
:10429000013406BF52EA033591EA030F41F40021CD
:1042A00030BD00BF90F0000F04BF0021704730B553
:1042B0004FF4806404F132044FF000054FF0000128
:1042C00050E700BF90F0000F04BF0021704730B5E9
:1042D0004FF4806404F1320410F0004548BF4042BE
:1042E0004FF000013EE700BF42004FEAE2014FEA13
:1042F00031014FEA02701FBF12F07F4393F07F4FEE
:1043000081F06051704732F07F4208BF704793F0F0
:104310007F4F04BF41F40021704730B54FF4607403
:1043200001F0004521F000411CE700BF50EA010206
:1043300008BF704730B54FF000050AE050EA0102AF
:1043400008BF704730B511F0004502D5404261EB1F
:1043500041014FF4806404F132045FEA915C3FF460
:10436000D8AE4FF003025FEADC0C18BF03325FEAFD
:10437000DC0C18BF033202EBDC02C2F1200300FAAE
:1043800003FC20FA02F001FA03FE40EA0E0021FAD3
:1043900002F11444BDE600BF70B54FF0FF0C4CF4C1
:1043A000E06C1CEA11541DBF1CEA135594EA0C0F73
:1043B00095EA0C0F00F0DEF82C4481EA030621EAAE
:1043C0004C5123EA4C5350EA013518BF52EA0335E9
:1043D00041F4801143F4801338D0A0FB02CE4FF09B
:1043E0000005E1FB02E506F00042E0FB03E54FF0CB
:1043F0000006E1FB03569CF0000F18BF4EF0010EC3
:10440000A4F1FF04B6F5007F64F5407404D25FEABE
:104410004E0E6D4146EB060642EAC62141EA555171
:104420004FEAC52040EA5E504FEACE2EB4F1FD0CB3
:1044300088BFBCF5E06F1ED8BEF1004F08BF5FEA31
:10444000500E50F1000041EB045170BD06F00046E3
:1044500046EA010140EA020081EA0301B4EB5C0490
:10446000C2BFD4EB0C0541EA045170BD41F4801188
:104470004FF0000E013C00F3AB8014F1360FDEBFAD
:10448000002001F0004170BDC4F10004203C35DA89
:104490000C341BDC04F11404C4F1200500FA05F30C
:1044A00020FA04F001FA05F240EA020001F00042AD
:1044B00021F0004110EBD37021FA04F642EB060123
:1044C0005EEA430E08BF20EAD37070BDC4F10C044D
:1044D000C4F1200500FA04F320FA05F001FA04F211
:1044E00040EA020001F0004110EBD37041F10001FD
:1044F0005EEA430E08BF20EAD37070BDC4F1200508
:1045000000FA05F24EEA020E20FA04F301FA05F26F
:1045100043EA020321FA04F001F0004121FA04F217
:1045200020EA020000EBD3705EEA430E08BF20EAE7
:10453000D37070BD94F0000F0FD101F00046400021
:1045400041EB010111F4801F08BF013CF7D041EAA3
:10455000060195F0000F18BF704703F000465200A7
:1045600043EB030313F4801F08BF013DF7D043EA78
:104570000603704794EA0C0F0CEA135518BF95EA2E
:104580000C0F0CD050EA410618BF52EA4306D1D1B5
:1045900081EA030101F000414FF0000070BD50EAD4
:1045A000410606BF1046194652EA430619D094EA5E
:1045B0000C0F02D150EA013613D195EA0C0F05D148
:1045C00052EA03361CBF104619460AD181EA03019C
:1045D00001F0004141F0FE4141F470014FF0000054
:1045E00070BD41F0FE4141F4780170BD70B54FF0EF
:1045F000FF0C4CF4E06C1CEA11541DBF1CEA13556F
:1046000094EA0C0F95EA0C0F00F0A7F8A4EB050450
:1046100081EA030E52EA03354FEA013100F0888047
:104620004FEA03334FF0805545EA131343EA126310
:104630004FEA022245EA111545EA10654FEA0026C5
:104640000EF000419D4208BF964244F1FD0404F57E
:10465000407402D25B084FEA3202B61A65EB0305DA
:104660005B084FEA32024FF480104FF4002CB6EB97
:10467000020E75EB030E22BFB61A754640EA0C0017
:104680005B084FEA3202B6EB020E75EB030E22BF57
:10469000B61A754640EA5C005B084FEA3202B6EB98
:1046A000020E75EB030E22BFB61A754640EA9C0057
:1046B0005B084FEA3202B6EB020E75EB030E22BF27
:1046C000B61A754640EADC0055EA060E18D04FEAE5
:1046D000051545EA16754FEA06164FEAC30343EA85
:1046E00052734FEAC2025FEA1C1CC0D111F4801F52
:1046F0000BD141EA00014FF000004FF0004CB6E74B
:1047000011F4801F04BF01430020B4F1FD0C88BFE9
:10471000BCF5E06F3FF6AFAEB5EB030C04BFB6EBF4
:10472000020C5FEA500C50F1000041EB045170BDE7
:104730000EF0004E4EEA113114EB5C04C2BFD4EB14
:104740000C0541EA045170BD41F480114FF0000E98
:10475000013C90E645EA060E8DE60CEA135594EA14
:104760000C0F08BF95EA0C0F3FF43BAF94EA0C0F17
:104770000AD150EA01347FF434AF95EA0C0F7FF48C
:1047800025AF104619462CE795EA0C0F06D152EAE0
:1047900003353FF4FDAE1046194622E750EA4106C4
:1047A00018BF52EA43067FF4C5AE50EA41047FF4D5
:1047B0000DAF52EA43057FF4EBAE12E74FEA410238
:1047C00012F5001215D211D56FF47873B3EB625263
:1047D00012D94FEAC12343F0004343EA505311F08A
:1047E000004F23FA02F018BF404270474FF000001C
:1047F000704750EA013005D111F0004008BF6FF05A
:10480000004070474FF00000704700BF10F8012BC8
:1048100011F8013B012A28BF9A42F7D0D01A7047FD
:10482000034613F8012B002AFBD1181A01387047F0
:1048300009480A49884208B505D0094A824202D08F
:10484000121A02F02FFD0748074A0021121A02F03F
:1048500051FD014808BD00BFB0E50320E47A0B001C
:1048600030E6032030E60320F8E7032070B5074E5A
:10487000074C01F039FFA41BA4080025AC4200D16D
:1048800070BD56F8043B98470135F7E7987A0B005E
:10489000C07A0B0000F05AB808B500F0EDF8BDE89A
:1048A000084001F0D9BE00F007BD00F005BD00F0E2
:1048B0000BBD000008B5034A03490C2000F040FC82
:1048C000FEE700BFF14E0B00E8750B000078B0FA70
:1048D00080F040097047012303707047704770B53E
:1048E0000C1E064615460BDA0A2A09D12D2100F0C6
:1048F0008FFE6142EAB23046BDE8704000F08BBEE8
:104900002146F7E70A4B10B50446036001F028F88A
:10491000214601F072FA01F0F3FF01F0E5FF2046B5
:10492000044B40F8043B01F0F1F8204610BD00BFF5
:1049300044760B002C760B0010B50446FFF7E2FF1F
:1049400020462421FFF7B3FF204610BD10B51E4CB2
:10495000002320460222102100F025FA00231A46E7
:104960001946204600F00BFA1849204600F04CFE8C
:1049700001222046002100F0CDF91549204600F023
:1049800043FE144B0021188802F0BAFB124B0121A0
:10499000188802F0B5FB01F0B3FF4FF4165101F097
:1049A0009FFF0E490E480023092200F075FC0D49B7
:1049B0000D480023022200F06FFCBDE810404FF4C8
:1049C0007A7001F01DBE00BF48E60320FD750B00A4
:1049D00003760B00B8E50320B4E5032040E603208E
:1049E0000A760B007CE6032012760B000000000024
:1049F00010B50F4B0F4C188802F0ACFBFFF762FCB0
:104A00000D4B0022FFF710FB07A3D3E90023FFF7AC
:104A1000EDFD02460B46C4E90023084CC4E900231F
:104A2000FFF7CCFE10BD00BFCDCCCCCCCCCC284009
:104A3000B8E5032080E603200060834040E60320C1
:104A400038B50A4D0A4C2888012102F06AFB0A2079
:104A500001F0D6FD074B188802F07CFB0021206096
:104A6000288802F05EFB206838BD00BFB4E5032053
:104A70007CE60320B0E5032010B5134C002206218C
:104A8000204600F047F9FFF7B3FF0A22014620460F
:104A9000FFF725FF01220721204600F03BF9FFF731
:104AA000CFFF0A2201462046FFF719FF01F028FF39
:104AB000064B0A221968FFF712FFBDE810404FF4B9
:104AC0007A7001F09DBD00BF48E603207CE603201C
:104AD00070B5D0E900531426044606FB0356AE42D7
:104AE00004D0284600F09AFC1435F8E7206800F05E
:104AF000EBFB204670BD8842F8B504460D461646CD
:104B000016D9904215D2A2F11406751AA1F1140714
:104B10002C44B7421CD02CB13146204600F0E7FCB3
:104B2000337C2374304600F079FC143E143CF0E7EB
:104B30000ED0B5420CD02CB12946204600F0D7FC4F
:104B40002B7C2374284600F069FC14351434F0E7FC
:104B5000F8BD2DE9F0410023C0E9003383604F68C0
:104B60009F4204460E4623DD4FF0140808FB07F071
:104B700000F0A2FB0546D8B1D4E9001208FB0212EE
:104B8000FFF7B9FF206800F09FFB2560A760D6E91A
:104B9000007308FB0378B84508D03946284600F072
:104BA000C0FC3B7C2B7414371435F4E773686360E6
:104BB0002046BDE8F081000070B5244B244A9A607D
:104BC0008CB00024C3E90044012000F0D1FACDE903
:104BD0000044029401F094FE1E4C0546694603A869
:104BE000FFF7B7FF264603A906A8FFF7B2FF1A4B47
:104BF00046F8043B06A909A8FFF7ABFF09AA1E2146
:104C0000304601F0DDF909A8FFF762FF06A8FFF7BB
:104C10005FFF124B2360256203A8FFF759FF104B7B
:104C2000236001F06DFE4FF4165101F059FE00F0C3
:104C300097FE214601F09AF86846FFF749FF0948B8
:104C40000CB0BDE8704000F053B800BF30E6032060
:104C50000000FFFF58E603202C760B0048770B007E
:104C600044760B0048E6032008B500F009F9014B33
:104C7000186008BD88E60320704710B5102104466F
:104C8000FFF715FE204610BD70B50E46054602F032
:104C9000D3FA3E2101F00AFF0024A64207DD02F00C
:104CA000CBFA0368295D9B6898470134F5E702F069
:104CB000C3FABDE8704001F000BF07B540238DF88E
:104CC000051001A802218DF80430FFF7DDFF012057
:104CD00003B05DF804FB07B580238DF805000221C1
:104CE00001A88DF80430FFF7CFFF03B05DF804FB97
:104CF00000224260014A0260704700BF5C760B00F0
:104D000008B50120FFF7E7FFBDE808404FF4FA605F
:104D100000F0EEB807B56AB941F0800180238DF844
:104D2000051001A802218DF80430FFF7ADFF03B094
:104D30005DF804FB41F0C001F0E7437A43F0040260
:104D4000427243F00C00FFF7C6BF38B514460D465B
:104D500002F072FA622101F0A9FE02F06DFA036816
:104D600029469B68984702F067FA036821469B68CA
:104D7000984702F061FABDE8384001F09EBE70B578
:104D8000044616460A4604211D46FFF7DEFF32465A
:104D900020460321FFF7D9FF2A4620460221BDE81D
:104DA0007040FFF7D2BF70B504461E46154602F0AC
:104DB00043FA01F071FE012D88BF237A257384BF69
:104DC00043F008032372002363732EB1012D02BF49
:104DD000237A43F0040323724CF2503000F088F839
:104DE000207A40F02000FFF776FF41F2941000F0A7
:104DF0007FF8207A40F02000FFF76DFF962000F04A
:104E000077F8207A40F02000FFF765FF207A40F025
:104E10002000FFF760FF042363722046FFF78DFF39
:104E20002046FFF76DFF0223A3720620FFF753FF12
:104E3000002211462046FFF788FF2046002201216C
:104E4000FFF783FF2046AA220821FFF77EFFFF23FA
:104E500020461A46BDE870401946FFF790BF000093
:104E600008B5024B1B689B68019308BD68020300EC
:104E700008B5024B1B68DB68019308BD680203009C
:104E800008B5024B1B681B68019308BD2C02030088
:104E900008B5024B1B685B68019308BD2C02030038
:104EA00008B5024B1B689B68019308BD2C020300E8
:104EB00008B5024B1B68DB68019308BD2C02030098
:104EC00008B5024B1B681B69019308BD2C02030047
:104ED00008B5024B1B681B6B019308BD2C02030035
:104EE00008B5024B1B685B68019308BD18020300FC
:104EF00008B5024B1B68DB68019308BD180203006C
:104F000008B5024B1B685B69019308BD18020300DA
:104F100008B5024B1B685B6C019308BD4802030097
:104F200008B5024B1B689B6C019308BD4802030047
:104F300008B5024B1B68DB6C019308BD48020300F7
:104F400008B5024B1B685B6D019308BD4802030066
:104F500008B5024B1B685B69019308BD640203003E
:104F600008B5024B1B689B68019308BD3C02030017
:104F700008B5024B1B68DB68019308BD3C020300C7
:104F800008B5024B1B681B69019308BD3C02030076
:104F900008B5024B1B685B69019308BD3C02030026
:104FA00008B5024B1B689B69019308BD3C020300D6
:104FB00008B5024B1B68DB69019308BD3C02030086
:104FC00008B5024B1B681B6A019308BD3C02030035
:104FD00008B5024B1B689B6A019308BD3C020300A5
:104FE00008B5024B1B68DB6A019308BD3C02030055
:104FF00008B5024B1B681B6C019308BD3C02030003
:1050000008B5024B1B68DB68019308BD280203004A
:1050100008B5024B1B689B69019308BD2802030079
:1050200008B5024B1B68DB69019308BD2802030029
:1050300008B5024B1B681B6A019308BD28020300D8
:1050400008B5024B1B685B6A019308BD2802030088
:1050500008B5024B1B689B6A019308BD2802030038
:1050600008B5024B1B68DB6A019308BD28020300E8
:1050700008B5024B1B681B6B019308BD2802030097
:1050800008B5024B1B685B6B019308BD2802030047
:1050900008B5024B1B681B6C019308BD2802030076
:1050A00008B5024B1B68DB69019308BD30020300A1
:1050B00008B5024B1B681B6A019308BD3002030050
:1050C00008B5024B1B681B68019308BD4C02030026
:1050D00008B5024B1B685B68019308BD4C020300D6
:1050E00008B5024B1B689B68019308BD4C02030086
:1050F00008B5024B1B681B69019308BD4C020300F5
:1051000008B5024B1B685B69019308BD4C020300A4
:1051100008B5024B1B689B69019308BD4C02030054
:1051200008B5024B1B68DB69019308BD4C02030004
:1051300008B5024B1B681B6A019308BD4C020300B3
:1051400008B5024B1B685B6B019308BD600203004E
:1051500008B5024B1B68DB6E019308BD60020300BB
:1051600008B5024B1B681B6F019308BD600203006A
:1051700008B5024B1B685B68019308BD2002030061
:1051800008B5024B1B685B69019308BD2002030050
:1051900008B5034B1B68D3F88830019308BD0000A5
:1051A0002002030008B5034B1B68D3F89430019329
:1051B00008BD00002002030008B5024B1B685B68B5
:1051C000019308BD4002030008B5024B1B689B68B1
:1051D000019308BD4002030008B5024B1B68DB6861
:1051E000019308BD4002030008B5024B1B681B6910
:1051F000019308BD4002030008B5024B1B685B69C0
:10520000019308BD4002030008B5024B1B689B696F
:10521000019308BD4002030008B5024B1B68DB691F
:10522000019308BD4002030008B5024B1B681B6ACE
:10523000019308BD4002030008B5024B1B681B6BBD
:10524000019308BD4002030008B5024B1B685B6B6D
:10525000019308BD4002030008B5024B1B681B6C9C
:10526000019308BD4002030008B5024B1B685B6C4C
:10527000019308BD4002030008B5024B1B685B6D3B
:10528000019308BD4002030008B5024B1B689B6DEB
:10529000019308BD4002030008B5024B1B681B6860
:1052A000019308BD4402030008B5024B1B68DB6B89
:1052B000019308BD4402030008B5024B1B681B683C
:1052C000019308BD1C02030008B5024B1B685B6814
:1052D000019308BD1C02030008B5024B1B689B68C4
:1052E000019308BD1C02030008B5024B1B685B6AF2
:1052F000019308BD1C02030008B5024B1B68DB6B61
:10530000019308BD1C02030008B5024B1B681B6C0F
:10531000019308BD1C02030008B5024B1B685B6CBF
:10532000019308BD1C020300002240681146FFF7EC
:105330007BBF002240681146FFF786BF406800220D
:10534000FFF77ABF4068002281F00101FFF764BFD8
:10535000002340681A461946FFF756BF00234068ED
:105360001A461946FFF748BF002240681146FFF76A
:105370003BBF002240681146FFF726BF406800226D
:105380000221FFF729BF002340681A46FFF714BF28
:10539000024B03225A60024A1A6070478CE60320CF
:1053A00074760B000B6803604B68436013B15A6856
:1053B00001325A60704738B5046805467CB16368AD
:1053C000013B63605BB9236820469B689847A368EC
:1053D000013BA3601BB923682046DB689847284639
:1053E00038BD10B5044608462170FFF759FE00236A
:1053F0006360204610BD0000054B02221A60054B79
:10540000054A9A600020C3E90000FFF7B1BE00BF63
:10541000A0E6032094E603200000FFFF10B5044639
:105420000068FFF751FF204610BD10B50446006824
:1054300008B1FFF749FF0023C4E90133236010BD21
:1054400038B504460D4600680131FFF745FF10B13D
:10545000C4E90005012038BD10B50368044623B136
:1054600043688B4201D3012010BD2046FFF7E8FFBF
:105470000028F9D0A368002BF5D122681370F2E759
:1054800037B50D46114601920446FFF7E5FF019A34
:1054900028B92046FFF7C9FF204603B030BDA260FF
:1054A0002946206801F0FEFE2268A3680021D1543D
:1054B000F2E738B5054600680C4670B16A688B683B
:1054C0009A4208D3096831B101F061FFA368AB606B
:1054D0000023A36038BDFFF7F7FE23682B606368E5
:1054E0006B60A368AB600023C4E90033F1E710B53B
:1054F0000023C0E90033044683600373FFF7D9FF3C
:10550000204610BD884210B5044605D00B682BB16B
:105510008A681946FFF7B4FF204610BDFFF785FFE4
:10552000FAE710B500230446C0E900338360037333
:10553000FFF7E8FF204610BD10B54368013B044665
:10554000436063B903689B689847A368013BA36005
:105550002BB923682046DB68BDE81040184710BD12
:1055600070B5D0E90053044605EB0316AE4204D0F3
:105570002846FFF753FF1035F8E72068FFF7A4FE31
:10558000204670BD024800230360FFF7C1BC00BF86
:10559000A4E6032010B5044680680368DB689847DA
:1055A000E3681844E06010BDF8B506460D468F1854
:1055B0000024BD420CD0336815F8011B9B683046AF
:1055C0009847031E01DB1C44F3E7002C08BF1C4670
:1055D0002046F8BD704710B510210446FFF767F963
:1055E000204610BD13B50446084659B10191FFF796
:1055F00017F923680199DB680246204602B0BDE82E
:105600001040184702B010BD08B5FFF7EBFF08BD0A
:1056100003689B68184730B58BB00023012A8DF8CA
:10562000243098BF0A2209AC0D46B1FBF2F101FB10
:10563000125303F0FF03092B94BF30333733DBB22F
:10564000AA4204F8013DEFD92146FFF7CBFF0BB08A
:1056500030BD10B50446FFF753FCE06023682046D8
:105660005B699847002808DAFFF74AFCE368C01A2C
:10567000A3689842F2D34FF0FF3010BD2DE9F041FE
:1056800007460C468E180D46B542A5EB040807D018
:105690003846FFF7DEFF031E02DB05F8013BF3E7A8
:1056A0004046BDE8F0817047084611B10B685B6861
:1056B0001847704770477047704738B504460D4625
:1056C00000682E2101F059FE2368C31A2B6023B114
:1056D000037803B1013023682060184638BD10B547
:1056E00004210446FFF7E3F8204610BD10B504215D
:1056F0000446FFF7DCF8204610BDFFF719BC08B5DB
:10570000FFF784F8B0FA80F0400908BD704710B583
:105710000C4601F0F5F8844210D001F04DFD8442B2
:1057200005D101F049FDBDE8104001F068B92CB188
:10573000236820465B68BDE81040184710BD13B5CC
:10574000044608460191FFF76BF80199024620468E
:1057500002B0BDE8104001F085BC13B50446084610
:105760000191FFF75DF823680199DB680246204646
:1057700002B0BDE81040184707B503688DF8071060
:10578000DB6801220DF10701984703B05DF804FBC7
:105790002DE9F74FD0E900844FF0140A00930AFB7B
:1057A00004F4184BA41017465C434546002C21DD39
:1057B00066100AFB06F005EB00093A46B9F804B09A
:1057C000285801915F4528BF5A4601F0E8FD00289E
:1057D00001994FF001030BD15F4503D1009A13707B
:1057E0003446E3E7FCD9A61B09F11405013EF7E7AF
:1057F000F9DBF5E7A5EB08050248AD10684303B0F7
:10580000BDE8F08FCDCCCCCC7FB50369057E01918E
:1058100003B3F9B1002600F10C04039603A901A813
:10582000FFF74BFF0146A8B10DF10B03039A8DF86A
:105830000B602046FFF7ACFF9DF80B3053B1236897
:10584000142404FB0034083434F9023C002BA8BFB4
:10585000DDB2E3E7284604B070BD0EB4F0B58CB0FD
:1058600000AF07F14405044655F8042B7A602B4637
:10587000202107F11000FD60FFF736FD1F287A6830
:105880001AD900F1080323F007036E46ADEB030DB0
:10589000411C2B466846FD60FFF726FD021E04DD15
:1058A00023686946DB6820469847B5463037BD46D1
:1058B000BDE8F04003B070470028F7D023680246E7
:1058C000DB6807F1100120469847EFE710B5094C57
:1058D0002378BFF35B8FDB0709D42046FEF7F6FF82
:1058E00028B12046FEF7F7FF034801F0CDFC03483E
:1058F00010BD00BFACE60320B5560B00BCE503208D
:1059000010B5094C2378BFF35B8FDB0709D4204621
:10591000FEF7DCFF28B12046FEF7DDFF034801F06B
:10592000B3FC034810BD00BFB0E603200D570B00C9
:10593000C0E5032038B500250446C0E90055C0E99C
:1059400004558560856140F8245FFFF7E1FAFFF7B1
:10595000BDFFE061FFF7D4FF25732062204638BD0C
:1059600010B50A4C2378BFF35B8FDB070CD42046BD
:10597000FEF7ACFF40B10648FFF7DCFF2046FEF71C
:10598000AAFF044801F080FC014810BDA8E60320EE
:10599000B8E60320D95E0B00024A034903480023FE
:1059A000FFF7DEBBBD5C0B00495C0B00C95B0B0065
:1059B00000231A4619461846FFF7D2BB37B58D6843
:1059C00004466846FFF7EEFC6A462946204601F089
:1059D00069FA01A8FFF7EFFC204603B030BD37B5E8
:1059E000CD6804466846FFF7DDFC6A462946204636
:1059F00001F034FA01A8FFF7DEFC204603B030BD09
:105A000037B50D6904466846FFF7CCFC6A4629465F
:105A1000204601F0CCF901A8FFF7CDFC204603B0E9
:105A200030BD000070B58AB00D46014604A8FFF7EE
:105A3000C5FF144E04A801F04DFAE8B104A9684668
:105A4000FFF7CDFF02983146FFF759FE044610B12B
:105A50002C1E18BF012401A8FFF7ADFC002CE9D0D3
:105A600004A96846FFF7CCFF684601F0D6F9286024
:105A700001A8FFF7A0FCDDE705A8FFF79CFC0AB032
:105A800070BD00BFC8760B0037B50C4620461349E1
:105A90001546FEF7BBFE50B900F032FF4FF4165129
:105AA00000F01EFF03B0BDE8304000F029BF0C49F4
:105AB0002046FEF7ABFE78B94FF4165301A92846ED
:105AC0000193FFF7AFFF01F077FB019900F094FF1E
:105AD00001F072FB03B030BD0020FBE7CD760B0078
:105AE000D4760B0070B5D0E900531426044606FBAB
:105AF0000356AE4205D005F10800FFF7F3FF143559
:105B0000F7E72068FFF7E0FB204670BD10B50446BC
:105B10000C30FFF7E7FF2046FFF722FD204610BDBF
:105B200010B5044B044640F8043BFFF7EFFF204656
:105B300010BD00BF2C760B0010B50446FFF7F0FF38
:105B400020462421FEF7B3FE204610BD10B5034BBE
:105B500003600446FFF7E4FF204610BD60770B00AA
:105B600010B50446FFF7F2FF20462421FEF79FFE02
:105B7000204610BD0A6802604A6842600022C0E9FF
:105B8000022210B502618C688460CC68C4600C6924
:105B90008A60CA6004610A6110BD0022C0E9002267
:105BA00010B582600C6804604C6844608C680A60C0
:105BB0004A6084608A6010BD10B5036804461868A6
:105BC000FFF7BEF9204610BD2DE9F04F87B08046A3
:105BD00003931C4B5B68C3F30803894616466BB9F5
:105BE000FFF7BEFE044600F12403406A0593FFF769
:105BF00084FD237B2BB105A8FFF7DEFF07B0BDE8CE
:105C0000F08F01232373D4E900535FFA89F905EB80
:105C1000830AAA4512D055F8047B3146381DFFF798
:105C2000F3FD8145F5D33B68039A0092D3F808B0A1
:105C30004A46334641463846D847EAE700232373AD
:105C4000D9E700BF00ED00E02DE9F74F9B461A4B66
:105C50005B68C3F308038046894616466BB9FFF7B5
:105C60007FFE044600F12403406A0193FFF745FDDF
:105C7000237B2BB101A8FFF79FFF03B0BDE8F08F96
:105C800001232373D4E90053F6B205EB830A55458B
:105C90000ED055F8047B5946381DFFF7B5FD8642F6
:105CA000F5D33B684A46DB68414638469847EEE7FD
:105CB00000232373DEE700BF00ED00E02DE9F34190
:105CC000164B5B68C3F3080305460F461BBBFFF783
:105CD00047FE00F124030446406A0193FFF70DFDDF
:105CE000D4E90063462406EB8308B04509D101A836
:105CF000FFF762FFA542B4BF0020012002B0BDE85B
:105D0000F08156F8040B39460430FFF77DFD8442DC
:105D1000A8BF0446E9E70020F0E700BF00ED00E07F
:105D2000F8B5D0E901539D4204460E460DDB6F1CC9
:105D3000002F006804DDB900FFF7CEFA18B9F8BDEE
:105D4000FFF7C2FA00202060A7602768626807EBAF
:105D500085019200A2EB8502081D01F0B1FA47F817
:105D600025606368013363600120E8E737B500F11F
:105D700024030446406A01930D46FFF7BEFCD4E9B4
:105D8000003203EB8202934219460BD00968A94204
:105D900003F10403F7D101A8FFF70EFF0025284601
:105DA00003B030BD29462046FFF7BAFF054600285C
:105DB000F1D06368012B01D1FFF7EEFD01A8FFF7D9
:105DC000FBFEECE770B50446D0E900020B4600EBA1
:105DD000820282420FD001461D6851F8046BAE4228
:105DE00007D1521A01F06CFA6368013B636001202D
:105DF00070BD0846EDE70020FAE71FB500F1240367
:105E00000446406A01910393FFF777FC01A92046FD
:105E1000FFF7D8FF18B163680BB9FFF7C9FD03A8F6
:105E2000FFF7CAFE04B010BD70B5D0E904561823C0
:105E3000044603FB0656AE4215D005F1100120467C
:105E4000FFF7C0FF63680BB9FFF7B2FDE06929698E
:105E50000368DB689847696919B1206A0368DB68E1
:105E600098471835E7E7D4E90453182606FB03568C
:105E7000AE4204D02846FFF7D1FA1835F8E70023E0
:105E8000636170BD73B50446FFF792FD04F124030E
:105E9000606A0193FFF731FC2046FFF7C5FF01A8B8
:105EA000FFF78AFE606A08B1FFF73AF8D4E90453B5
:105EB000182606FB0356AE4204D02846FFF7AEFA7A
:105EC0001835F8E72069FFF7FFF92068FFF7FCF9BC
:105ED000204602B070BD00000148FFF7D3BF00BFED
:105EE000B8E603208842F8B504460D46164615D993
:105EF000904214D2A2F11406751AA1F114072C4491
:105F0000B7421AD01CB131462046FFF733FE06F1E6
:105F10000800FFF7E7FD143E143CF1E70DD0B54251
:105F20000BD01CB129462046FFF724FE05F10800DE
:105F3000FFF7D8FD14351434F1E7F8BD8842F8B501
:105F400004460D46164614D9904213D2A2F110060B
:105F5000751AA1F110072C44B74218D01CB1314674
:105F60002046FFF7C4FA3046FFF758FA103E103CBF
:105F7000F2E70CD0B5420AD01CB129462046FFF703
:105F8000B6FA2846FFF74AFA10351034F2E7F8BDA2
:105F900070B50E1E054611DD3001FFF78DF9044680
:105FA00058B1D5E9001201EB0212FFF7C7FF2868CC
:105FB000FFF78AF92C60AE60012070BD0024F6E77F
:105FC0002DE9F04F904695B000230391D8F80410C6
:105FD0000A9346229942C0E90033C0E90233C0E97E
:105FE0000433CDE908330446027623DCD8E90057B0
:105FF000142303FB0757AF423BD029460BA8FFF7FA
:1060000076FA0BA90FA8099EFFF771FADDE90913CB
:1060100099421BDA089B099A03EB061603EB02125E
:10602000314606F11000FFF789FFEEB9099B0133F5
:10603000099311E008A8FFF7ABFF0028D6D108A804
:10604000FFF78EFA204615B0BDE8F08F013108A8A1
:10605000FFF79EFF0028DDD10FA8FFF7DFF90BA89F
:10606000FFF7DCF91435C6E70FA93046FFF73FFA12
:10607000DCE70026CDE90B660D964FF01409DDE94B
:1060800008239E427CDA3301D35806930BB90136BC
:10609000F5E70023079309FB06F302930BAD07A96D
:1060A00006A8FFF70AFB82460028F0D04FF0000355
:1060B0008DF817300146079A0DF117032846FFF7B0
:1060C00067FB9DF817700190002F4AD1BDF81C3076
:1060D000ADF84030CDE911774FF6FF73CDF83CA015
:1060E000ADF842301397D5E90132934217DB03F143
:1060F000010ABAF1000F30DD09FB0AF0FFF7DCF806
:10610000834660B3D5E9001209FB0212FFF7EAFEED
:106110002868FFF7D9F8C5F800B0C5F808A02B68C3
:10612000019A09FB023A6A68514609FB02320AF1F8
:106130001400FFF7D7FEBAF1000F03D00FA95046A5
:10614000FFF718FD6B6801336B6011A8FFF7CAFCFD
:106150003FB10BA8FFF7C6FC71E7BB46D8E70127A4
:10616000F3E7019B2D6809FB0355069B1B782BB9B0
:10617000D8F80030029A13441B7CEB8008358EE778
:106180002168226062686360A36809920A9A0A9390
:10619000E368A2600B9A0B932369E2600C9A0C935C
:1061A000636922610D9A0D93039B089162612376C6
:1061B000CFE70000F0B5044687B00D4626461946E5
:1061C00068461746FEF7C5FC0B4B46F8043B69468C
:1061D00003A8FEF7BEFC03AA39463046FFF7F0FEDF
:1061E00003A8FEF775FC6846FEF772FC034B2360BC
:1061F0002046256207B0F0BD2C760B0048770B00D7
:10620000F0B50F4685B01D490A9C384616461D4616
:10621000FEF7FCFAC0B9A4B1294601A8FFF7BDFCFE
:106220001749242001F02CF8054630B101AB324665
:106230002146FFF7BFFF134B2B6001A8FEF748FC78
:106240002C46204605B0F0BD0F493846FEF7DEFA71
:1062500090B9002CF5D0294601A8FFF79EFC08490B
:10626000242001F00DF805460028E6D001AB3246A7
:106270002146FFF79FFFE0E70024E2E7DC760B0012
:1062800001790B0060770B00E0760B00014B024AAE
:106290001A607047B4E60320F1760B002DE9F04751
:1062A000089DD0F8209004460E461746984600F008
:1062B00027FB81454CD02B79190704D56A695449CD
:1062C0002046FFF7CAFAB8F1000F0DD05B21204637
:1062D000FFF752FA41462046FFF73FFA23684D493F
:1062E000DB680222204698472B79DA0723D5D5F8B8
:1062F00008802F21404601F066F808B100F101083E
:1063000041462046FFF729FA2B799B0708D53A2109
:106310002046FFF731FAEA683F492046FFF79DFA29
:106320002A79236812F0040FDB6814BF3B493C490B
:106330000222204698472B7958071DD529690B461C
:106340001A4613F8010B60B1202808D11946F7E767
:10635000344800F02AFC0028ADD0BDE8F08728289A
:10636000EED12368521ADB682046984723682E49ED
:10637000DB6804222046984700213846FEF7E8FEF5
:1063800001462046FFF7E9F923682549DB68022228
:10639000204698471EB131462046FFF7DEF92B799B
:1063A00013F0300F2CD023682049DB6802222046EE
:1063B00098472B79D9060AD523681D49DB6807223F
:1063C00020469847AA691B492046FFF746FA2B79D1
:1063D0009A0611D5DB0605D523681049DB68022231
:1063E0002046984723681449DB6820460A229847CC
:1063F000E9692046FFF7B1F95D212046FFF7BCF9B6
:1064000023680E49DB6820460222BDE8F0471847A2
:10641000F5760B00FC760B00FF760B0002770B0085
:1064200007770B001CE7032005770B000A770B00AA
:106430000D770B0015770B0018770B0023770B00F7
:106440002DE9F0410446076A0D46164600F058FA59
:10645000874207D0206A036832462946DB68BDE8D8
:10646000F0411847034800F0A0FB0028F2D0BDE837
:10647000F08100BF1CE703202DE9F04385B0D0F880
:1064800020900C9C05460F4690461E4600F038FAB8
:10649000814505D1494800F088FB002840F08A80FA
:1064A0002B6A474A00924FF000096846CDE902394D
:1064B0008DF8049000F037FD49464046FEF748FE4F
:1064C000404980460122684600F0BCFD4146FFF786
:1064D00036F93FB13C490122684600F0B3FD394628
:1064E000FFF72DF93EB139490122684600F0AAFDB7
:1064F0003146FFF724F92379DF070ED5A6682F214F
:10650000304600F060FF00B1461C31490122684668
:1065100000F098FD3146FFF712F923799E0707D561
:106520002C490222684600F08DFDE16800F008FD6C
:106530002379580714D5266933461F4613F8012BD3
:106540002AB1202A01D11E46F7E7282AF5D122498F
:106550000222684600F076FDBA1B314600F082FD4B
:106560002379190707D51D490122684600F06AFD05
:10657000616900F0F7FC2379DA0607D5184904228F
:10658000684600F05FFDA16900F0DAFC23799B0604
:1065900007D514490622684600F054FDE169FFF76B
:1065A000CEF8684600F0A9FC286A0F490368022269
:1065B000DB68984705B0BDE8F08300BF1CE7032007
:1065C000B8760B00D2760B0026770B0094790B007F
:1065D00028770B002A770B002D770B0030770B0004
:1065E00032770B0037770B0023770B00024B1A68CA
:1065F000024B1A60704700BFC4E50320E0E60320A9
:106600000021FEF7BDBD0000014B00229A607047DB
:10661000E4E60320014B1860704700BFC8E5032083
:1066200008B50B4B43B100F06BF903681B69984741
:10663000002801DDAFF30080064B43B100F0BCFD44
:1066400003681B699847002801DDAFF3008008BD8F
:10665000000000000000000008B5FFF7E1FFFEF7B2
:106660004FFC014B186008BD48E703200548064A67
:10667000064908B5121A00F015FE054B054A1A60C6
:1066800008BD00BF00F4032004F40320647B0B006A
:1066900000F403201E1C279A07B5002300931A4616
:1066A0006FF07701FEF77EFD03B05DF804FB00009C
:1066B00007B543880A2B08D0502B0BD1094B1B6818
:1066C0004BB103B05DF804EB1847FFF7E5FF03B0EB
:1066D0005DF804FB002300931A466FF07701FEF784
:1066E00061FDF4E7F8E6032010B512480021FEF73B
:1066F00013FE114B1A68114B9A42114B0CBF012229
:1067000000221A7001D0FFF7B1FFFEF7E9FB044643
:1067100000F0F8FD0B4B13B12046AFF300800021D1
:106720000848FEF7C1FDBDE8104007480021FEF70C
:106730002FBD00BF15660B0000F403201E1C279A16
:10674000F4E6032000000000B1660B00704710B5AE
:1067500018210446FEF7ABF8204610BDF0B5037DC6
:10676000062B8DB00E4600F104074FF0000412D046
:1067700000F1080515F8011D0A223046FEF74BFF0F
:10678000AF42044419D0002CF4D02E213046FEF73D
:106790003FFF0444EEE72F236A4639460A208DF86E
:1067A0000040FEF7D5FB6846FEF73AF8336802462C
:1067B000DB68694630469847044620460DB0F0BD78
:1067C00010B5054B0446112240F8043B002100F0AF
:1067D00091FD204610BD00BFC4770B000346074A59
:1067E00010B543F8042B01F1100251F8044B43F8A3
:1067F000044B9142F9D10A781A7010BDC4770B008E
:1068000010B59DF8084044EA032343EA024242EAF5
:10681000016104234160037510BD000007B5064BFC
:106820000360CB7800938B784A780978FFF7E8FF0C
:1068300003B05DF804FB00BFC4770B0041747047E0
:106840007047704708B50021007CFEF761FC40EA04
:10685000E07008BD08B50121007CFEF759FC40EA54
:10686000E07008BD08B5007CFEF74AFC20EAE07045
:1068700008BD08B5007CFEF73BFC20EAE07008BDCF
:1068800013B50446007C0191FEF73AFC00280199FB
:1068900001DC607C20B1207CFEF742FC20EAE07045
:1068A00002B010BD007CFEF743BC10B514210446B5
:1068B000FDF7FDFF204610BD10B54FF47A73044676
:1068C00008460021C4E90113044B2360012320740E
:1068D00063741146FEF7F4FB204610BDD8770B0019
:1068E000007C0022FEF7F4BB007CFEF7F9BB10B57C
:1068F00014220446002100F0FDFC204610BD0000DB
:1069000010B50F4C88B003A8FFF7F1FF2178BFF353
:106910005B8F11F001010FD120460191FDF7D6FFE9
:10692000019948B103AA0748FFF7C6FF2046FDF7C3
:10693000D2FF054800F0A8FC024808B010BD00BF17
:10694000FCE6032000E7032041680B007047417418
:10695000704708B5007CFEF73BFB20EAE07008BDFD
:1069600008B5007CFEF70CFB20EAE07008BD08B516
:10697000007CFEF715FB40EAE07008BD08B5007C1E
:10698000FEF706FB40EAE07008BD007CFEF710BB96
:1069900037B5457C04462DB1207C03B0BDE83040BE
:1069A000FEF7E6BA007C0191FEF712FB0028019980
:1069B000F2DC284603B030BD10B514210446FDF7C3
:1069C00076FF204610BD000010B54FF47A730446E0
:1069D000084611460022C4E90123044B2360012329
:1069E00020746374FEF704FB204610BD0C780B0086
:1069F000007C0023FEF7F4BA0022FFF7F9BF007C09
:106A0000FEF7AEBA7047F8B5064615460C468F1825
:106A1000BC4206D0336814F8011B9B683046984787
:106A2000F6E72846F8BD007C0022FEF701BB007C9B
:106A30000021FEF705BB007C0021FEF709BB007CAE
:106A40000021FEF70DBB007C0021FEF711BB10B545
:106A500014210446FDF72BFF204610BD38B504462F
:106A600015464FF47A730022C4E90123094B2174BF
:106A7000084623602946FEF70BFBBF3008D16B693F
:106A8000DB0705D56868FEF71FFCE868FEF71CFC0D
:106A9000204638BD40780B000023007C1A4619467A
:106AA000FEF7AEBA007C0022FEF7B2BAC9B2FFF719
:106AB000F9BF007C0022FEF7B3BA0121FFF7F9BF4E
:106AC000002240681146FEF78FBB00224068114645
:106AD000FEF7AABB002240681146FEF7B5BB40682E
:106AE0000022FEF7A9BB4068002281F00101FEF7F9
:106AF00093BB002340681A461946FEF785BB002366
:106B000040681A461946FEF777BB002240681146D6
:106B1000FEF75ABB406800220221FEF75DBB00234E
:106B200040681A46FEF748BB024B04225A60024AEC
:106B30001A60704714E703206C780B00002340684C
:106B40001A46FEF739BB406800220221FEF744BB1B
:106B5000002240681146FEF737BB0022406811460C
:106B6000FEF742BB002340681A461946FEF744BBB5
:106B7000002340681A461946FEF746BB40680021CC
:106B8000FEF76ABB40680021FEF76EBB406800223A
:106B900081F00101FEF740BB40680022FEF74CBBCC
:106BA000002240681146FEF74FBB002240681146A4
:106BB000FEF73ABB40680021FEF766BB2DE9F043C3
:106BC00095B014460D460746FFF7FAFD00211C223A
:106BD0000DA8009100F08EFB40230C9320466B46DD
:106BE0000CAA0021FEF744F9044600284BD10246C6
:106BF00001216868FEF7F8FA02218046224668689B
:106C0000FEF7F2FA009E81462146002E3BD0002975
:106C100039D17368022B03D00A2B11D0F669F4E73F
:106C2000B8F1000FFAD0716906A8043107ADFFF77B
:106C3000F5FD0FCD3C1D0FC42B6823704146EDE7D9
:106C4000B9F1000FEAD07469102201A800F052FBDC
:106C500006238DF8143001AD04F1080318341868C8
:106C600059682A4603C20833A3421546F7D101A941
:106C700006A807ADFFF7B2FD0FCD3C1D0FC42B6872
:106C800023704946CAE70098FEF7EAF8384615B07F
:106C9000BDE8F083033802289ABF024B53F8200066
:106CA00001487047A8780B001CE7032008B50022B4
:106CB0004068FEF7E1FABDE80840FFF7EBBF0000CF
:106CC000024B034A1A6000225A6070471CE70320F7
:106CD000BC780B0000F11003012213F8101C0129ED
:106CE000184608D153F8041C02EB4102013A03F1A3
:106CF0001003F2D17047022904BF53F8041C521844
:106D0000F4E70EB4F0B588B000AF07F134051021F8
:106D100055F8042B7A6004462B467818FD60FEF780
:106D2000E3FA0F287A681AD900F1080323F0070361
:106D30006E46ADEB030D411C2B466846FD60FEF729
:106D4000D3FA021E04DD236869469B6820469847F3
:106D5000B5462037BD46BDE8F04003B07047002877
:106D6000F7D0236802469B6807F110012046984738
:106D7000EFE738B50B6803604D6843689D420446F1
:106D800008D015B16B6801336B60606808B1FEF71D
:106D9000D3FB656038BD07B503688DF807109B68A5
:106DA00001220DF10701984703B05DF804FB0B4683
:106DB0001146002210B5C0E90022044683600BB9D9
:106DC000204610BDFFF7D5FFFAE78368EBB11A78CC
:106DD000032A1AD8DFE802F00417021B05207047C7
:106DE00002685B685268D05C2D2812D0A0F1300395
:106DF000092B0ED974280ED066280CD0A0F16E0392
:106E000058425841704706207047002070470420C0
:106E10007047032070470220704710B50446FFF703
:106E2000D4FF02280ED0C31EDBB2012B14D8226877
:106E3000A36850685B68BDE810400A22002118442E
:106E400000F058BB2268A36852685B68D05CA0F170
:106E500074035842584110BD0020FCE738B50023A8
:106E6000C0E9003304460E48C4E90203A9B10B7817
:106E7000032B06D08BB9136858684B68C35C6E2B24
:106E800007D013684D6858688B6828445B1BA06066
:106E9000E36011462046FFF76CFF204638BD00BF77
:106EA00025770B0038B500250B46C0E90055C0E931
:106EB0000255C0E90455044611464BB11A78012A1F
:106EC00006D103F11002DB6882604361FFF751FFD6
:106ED000204638BD10B54369044663B18068E06060
:106EE000013B1030A0602061636113B1FFF7F2FE37
:106EF000A060012000E0184610BD10B57D210446B9
:106F0000FFF749FF01232371204610BD08B503791F
:106F1000012B02D0022B04D008BD2C21FFF73BFF30
:106F2000FAE73A21FAE710B50446FFF7EFFF2046EB
:106F30007B21FFF730FF00232371204610BD0000A6
:106F400013B504460191FFF7E1FF2368019ADB685E
:106F500003492046984701232046237102B010BD03
:106F6000FF760B0013B504460191FFF7CFFF2368AE
:106F7000019ADB6803492046984701232046237184
:106F800002B010BDF8780B002DE9F0470D46222124
:106F900090460446FFF7FFFEDFF8A490A8442F4672
:106FA0004745BA463DD017F8016B222E06D05C2E1D
:106FB00004D0304600F06EF90028F1D12368AAEB26
:106FC00005029B682946204698475C212046FFF72A
:106FD000E2FE0D2E0AD8072E1CD9A6F10803052BB8
:106FE00018D8DFE803F00D0F11171315222E01D06A
:106FF0005C2E0FD131462046FFF7CDFE3D46CFE750
:107000006221F8E77421F6E76E21F4E76621F2E7E2
:107010007221F0E723683246DB68494620469847EC
:10702000ECE7BD4205D023687A1B9B6829462046C1
:10703000984722212046FFF7AEFEBDE8F08700BF4B
:10704000FB780B0013B50446CDE90021FFF75EFF86
:107050002046DDE90021FFF797FF02232046237138
:1070600002B010BD13B50446CDE90021FFF74EFF75
:107070002046DDE90021FFF787FF01232046237129
:1070800002B010BD232813B502D9002002B010BDF4
:10709000A0F10B03022B1AD8174C2178BFF35B8F9A
:1070A00011F001010BD120460191FDF70FFC019970
:1070B00028B11248FEF795F92046FDF70CFC0F4B5E
:1070C0001878FDF7F5FF0028DFD10120DEE7012861
:1070D00009D800F0B1F80021007CFDF7D1FF80F065
:1070E0000100C0B2D2E709380128EED800F064F8F8
:1070F000007CFDF765FFF2E724E7032028E7032083
:10710000232838B504460D460AD8FF2908D0FFF7D2
:10711000B9FF28B129462046BDE83840FDF7C0BE7A
:1071200038BD38B504460D46FDF7C2FEFF2810D025
:10713000062804D84D2323FA00F0C30709D42046BB
:10714000FFF7A0FF28B129462046BDE83840FDF7EB
:10715000B7BE38BD0D2810B504469CBF0E34A4B28E
:107160002046FFF78FFF50B103212046FDF790FE28
:10717000032804D12046BDE81040FDF7A9BE002039
:1071800010BD704738B5044614252A46002100F08A
:10719000B1F825804025074925812846258200F041
:1071A00071F804496060284600F06CF8E060204601
:1071B00038BD00BF01790B0030B50E4D2978BFF303
:1071C0005B8F11F0010487B011D12846FDF77EFBDB
:1071D00068B101A8FFF7D6FF01AA21460648FFF7CC
:1071E000F3FB2846FDF777FB044800F04DF8024812
:1071F00007B030BD30E7032034E7032083710B0074
:107200007047000038B50A4B036001230446436110
:107210000849202000F036F8202560600549A56067
:10722000284600F02FF8C4E90305204638BD00BF0A
:107230001800010001790B0030B50E4D2978BFF31D
:107240005B8F11F0010487B011D12846FDF73EFB9A
:1072500068B16846FFF7D6FF6A4621460648FFF741
:10726000FDFB2846FDF737FB044800F00DF8024807
:1072700007B030BD4CE7032050E7032001720B003C
:10728000FDF711BBFDF711BB002301461A46184656
:1072900000F03AB9024B1844407800F0970070476C
:1072A00096790B000A44914200F1FF3300D17047F8
:1072B00010B511F8014B03F8014F9142F9D110BDFF
:1072C000884210B501EB020402D98442234607D854
:1072D000431EA14208D011F8012B03F8012FF8E753
:1072E000024401468A4200D110BD13F8014D02F854
:1072F000014DF7E702440346934200D1704703F87B
:10730000011BF9E738B5104B1D68AB6B0446B3B9E8
:107310001820FDF7D1FF0246A86320B90B4B0C489B
:107320004221FDF7F1FF0B490B4BC0E900130B4B5A
:1073300083600B23838100210120C2E90401AB6B30
:1073400000221C615A6138BDC8E5032002790B0098
:1073500019790B000E33CDAB34126DE6ECDE05006F
:10736000C9B2034610F8012B1AB18A42F9D1184666
:107370007047002918BF0023F9E710B50446FFF74E
:10738000EFFF18B92046FDF74BFA204410BD034625
:1073900011F8012B03F8012B002AF9D1704710B521
:1073A0007AB103460139841813F8010B11F8012F43
:1073B000904201D1A34201D1801A10BD0028F3D11F
:1073C000FAE71046F9E738B503460C4669B9BDE857
:1073D0003840FFF7C5BF431C054621461846FFF756
:1073E000BFFF0028F7D1284638BD0025F5E700008B
:1073F000012B2DE9F04701D0242B06D9FDF77CFFA6
:10740000162303600020BDE8F087DFF8E4C00D46D6
:107410002E4615F8014B14F80C7017F00807F7D139
:107420002D2C32D12C780127B51C002B5BD0102BD2
:1074300009D1302C07D12C7804F0DF04582C4DD121
:107440006C781023023507F1004808F1FF384FF03F
:10745000000CB8FBF3F9664603FB198AA4F1300E61
:10746000BEF1090F16D87446A34224DDBCF1000F0B
:107470001EDBB1451CD301D1A24519DB06FB034637
:107480004FF0010C15F8014BE8E72B2C04BF2C78CA
:10749000B51CCAE7A4F1410EBEF1190F01D8373C63
:1074A000E2E7A4F1610EBEF1190F04D8573CDBE707
:1074B0004FF0FF3CE6E7BCF1000F05DA2223036042
:1074C000464642B930469EE707B17642002AF9D0D7
:1074D000BCF1000F00D0691E1160F3E73024002BCF
:1074E000B1D10823AFE7302CA5D00A23ABE700BF0A
:1074F00097790B0013460A46014602480068FFF7D9
:1075000077BF00BFC8E503202DE9F843DFF8B88056
:107510000646D8F800001F460D46914600F056F882
:10752000254B1C6834B9254C1C60254B13B11B68D6
:10753000C4F8883063681F2B07DDD8F8000000F01E
:1075400047F84FF0FF30BDE8F8834EB3D4F8880019
:1075500088B91C4B23B9D8F8000000F038F8F0E7E0
:107560004FF48470FDF7A8FE0028F4D00023C0E992
:107570004033C4F88800636840F8239001229A40A1
:1075800000EB8301D0F800311343C0F80031022E24
:10759000C1F8807002BFD0F804311343C0F8043141
:1075A0006368D8F800005A1C0233626044F8235024
:1075B00000F00EF80020C6E7F0E7032064E70320A0
:1075C00000000000B9520B002CE603207047704702
:1075D0007047000031480B006D480B0095480B00C8
:1075E00099480B000000000043616C6C206F6E2016
:1075F00070757265207669727475616C0054656D82
:10760000703A0057617465723A0043465F74656D65
:10761000700043465F736F696C5F72656164696E89
:1076200067000000000000000000000000000000F3
:1076300000000000B5480B00DD480B000000000012
:107640000000000005490B0039490B009D620B004A
:1076500041640B000000000000000000794C0B00AA
:107660007B4C0B00BB4C0B00A9550B00000000002D
:107670000000000087530B007D530B0073530B0079
:1076800069530B005D530B0051530B007D6B0B00D6
:10769000856B0B0045530B003D530B0033530B0020
:1076A00029530B00AD6C0B00B56B0B00BD6B0B00D1
:1076B0000000000000000000D5550B00D7550B005E
:1076C00095550B00036D0B00626175640053657284
:1076D00069616C0053657269616C31004A534F4EA9
:1076E00053747265616D4C6F6748616E646C65724E
:1076F0000061707000253031307520005D2000255C
:1077000064002C200028293A2000205B00636F646D
:1077100065203D200025690064657461696C7320F3
:107720003D20000D0A006D0066006C6E00666E0064
:107730007400636F64650064657461696C000000C7
:107740000000000000000000215B0B00395B0B0013
:107750009D620B0041640B0000000000000000006F
:107760004D5B0B00615B0B0079640B00A7560B00AF
:107770000000000000000000B9560B00DF560B00AF
:1077800001620B00A9560B00000000000000000081
:10779000B7560B00ED560B00895A0B000F570B0024
:1077A00025592D256D2D25645425483A254D3A251A
:1077B00053257A0061736374696D650000000000F1
:1077C000000000005D670B004D670B004F670B006A
:1077D000000000000000000043680B00AB680B00D5
:1077E00081680B00A9550B0073680B0045680B00FE
:1077F00055680B00A5680B007D560B0065680B00F3
:107800003D680B0000000000000000004D690B0007
:10781000B9690B0091690B00A9550B0061690B0058
:107820007D690B006F690B008B690B007D560B00A7
:107830004F690B0053690B000000000000000000BE
:10784000056A0B004F6A0B00276A0B00076A0B00E2
:107850002F6A0B00376A0B003F6A0B00476A0B0068
:107860007D560B0000000000000000001F6B0B00A5
:10787000156B0B000B6B0B00C16A0B00FF6A0B0052
:10788000F36A0B007D6B0B00856B0B00E76A0B0046
:10789000DF6A0B00D56A0B00CB6A0B00AD6C0B00E6
:1078A000B56B0B00BD6B0B008CE6032014E70320C7
:1078B0001CE7032000000000000000003D6B0B00EF
:1078C000476B0B00516B0B005B6B0B00656B0B0088
:1078D000716B0B007D6B0B00856B0B008D6B0B00D0
:1078E000996B0B00A16B0B00AB6B0B00AD6C0B002D
:1078F000B56B0B00BD6B0B0025750075253034781A
:1079000000005245454E54206D616C6C6F632073CE
:107910007563636565646564002F6D6E742F776FA2
:10792000726B73706163652F776F726B73706163D5
:10793000652F4743432D31302D706970656C696E3A
:10794000652F6A656E6B696E732D4743432D313029
:107950002D706970656C696E652D34385F32303218
:1079600030313132345F31363036313830363431BF
:107970002F7372632F6E65776C69622F6E65776CFB
:1079800069622F6C6962632F7374646C69622F7211
:10799000616E642E63000020202020202020202003
:1079A00028282828282020202020202020202020AF
:1079B00020202020202020881010101010101010DF
:1079C0001010101010101004040404040404040423
:1079D00004101010101010104141414141410101AB
:1079E0000101010101010101010101010101010187
:1079F0000101101010101010424242424242020295
:107A00000202020202020202020202020202020256
:107A10000202101010102000000000000000000002
:107A20000000000000000000000000000000000056
:107A30000000000000000000000000000000000046
:107A40000000000000000000000000000000000036
:107A50000000000000000000000000000000000026
:107A60000000000000000000000000000000000016
:107A70000000000000000000000000000000000006
:107A800000000000000000000000000000000000F6
:107A90000000000000000000B94B0B00694C0B0017
:107AA00091530B00F9530B0085550B008D620B00B1
:107AB000ED650B0009660B00296B0B00C16C0B0018
:107AC000040000001400000003000000474E5500B1
:107AD000A0122FEDB457679C36F665839D06C460EF
:047AE000CD1615B5F5
:107AE4000E000000070000001300000078770B0070
:107AF40090770B00B4770B00CCE503200000000066
:107B04000000000000000000000000000000000071
:107B14000000000000000000000000000000000061
:107B24000000000000000000000000000000000051
:107B34000000000000000000000000000000000041
:107B44000000000000000000000000000000000031
:107B5400000000000000000000000000F4E7032023
:047B6400000000001D
:107B6E0000000102030405060708090A0B0C0D0E9E
:107B7E000F101112131415161718191A1B1C1D1E8F
:047B8E001F2028008C
:047B920078563412DB
:04000003B0004020E9
:00000001FF
